:100000000C9474000C949F000C949F000C949F001F
:100010000C949F000C949F000C949F000C949F00E4
:100020000C949F000C949F000C949F000C949F00D4
:100030000C949F000C949F000C949F000C949F00C4
:100040000C949F000C949F000C949F000C949F00B4
:100050000C949F000C949F000C949F000C9414032C
:100060000C949F000C94ED030C949F000C949F0043
:100070000C949F000C949F000C949F000C949F0084
:100080000C949F000C949F000C949F000C949F0074
:100090000C942E040C949F000C949F000C949F00D1
:1000A0000C949F000C949F000C949F000C949F0054
:1000B0000C949F000C949F000C949F000C949F0044
:1000C0000C949F000C949F000C949F000C946F0460
:1000D0000C949F000C949F000C94B0040C949F000F
:1000E0000C949F00A701390611241FBECFEFD1E267
:1000F000DEBFCDBF12E0A0E0B2E0ECEBF6E100E045
:100100000BBF02C007900D92AE31B107D9F71BBEED
:1001100014E0AEE1B2E001C01D92AE3DB107E1F7DF
:1001200010E0C8EED0E004C02297FE010E94580BF8
:10013000C43ED107C9F70E94A4020C945C0B0C9436
:100140000000FC0188279927E89421912032E9F3E7
:10015000293010F02E30C8F32B3241F02D3239F413
:10016000689404C00E94F100820F911D21912053D8
:100170002A30C0F31EF4909581959F4F0895009703
:1001800031F4DA018D919C91009709F40EC0DC01E5
:10019000FB013D912191222319F03217C9F3FACFC7
:1001A000332331F4DA011D921C9288279927089590
:1001B0001197AF93BF93FB013D912191321771F4D9
:1001C000332321F488279927119702C01E92119694
:1001D000FA01A193B0839F918F910895222369F72B
:1001E000EACF7AE0979F902D879F802D910D112463
:1001F0000895FC011282118280E287831086E55BFC
:10020000FF4F80E481938FE38083EC54F0401286AB
:100210001082148213821682158281E081870895EC
:10022000FC01728361830895CF93DF93EC01188200
:100230001616170684F56A30710569F16D3071057F
:1002400021F06115710539F110C08A85FE01E80FB2
:10025000F11D13861A861E821D8281E0898788839C
:10026000CE010B969C838B8316C08A85FE01E80F16
:10027000F11D63878F5F8A87C45BDF4F9881CC5401
:10028000D040891740F01A8618821C821B821E8279
:100290001D8281E089878881813029F4E981FA8192
:1002A000309709F009958881DF91CF910895CF9318
:1002B000DF93EC0188818823F9F0813019F020E088
:1002C00030E005C09E01255F3F4F82E0888389852D
:1002D000882359F0BE01695F7F4FAE014B5F5F4FCE
:1002E000C9010E94BF009C838B838B819C81892BD9
:1002F00019F0198681E001C080E0DF91CF91089567
:100300000E9457010895CF93DF93EC010E9457019B
:10031000882329F081E08987EB81FC818081DF914E
:10032000CF910895CF93DF93EC010E94570188236A
:1003300019F420E030E007C081E089878B819C813F
:100340000E94A1009C01C901DF91CF9108958EE127
:1003500092E00E94F9000895AF92BF92CF92DF928F
:10036000EF92FF920F931F9385E00E94BD03AA278F
:1003700097FDA095BA2FBC01CD010E94BC0920E0D9
:1003800030E040E85AE30E94700A20E030E040EAA2
:1003900050E40E94700A6093750270937602809315
:1003A00077029093780220E030E040E05FE30E9423
:1003B0006C0A88230CF48DC085E00E94BD03AA2737
:1003C00097FDA095BA2FBC01CD010E94BC0920E089
:1003D00030E040E85AE30E94700A20E030E040EA52
:1003E00050E40E94700A60937502709376028093C5
:1003F00077029093780220E030E040E05FE30E94D3
:100400006C0A88230CF465C085E00E94BD03AA270E
:1004100097FDA095BA2FBC01CD010E94BC0920E038
:1004200030E040E85AE30E94700A20E030E040EA01
:1004300050E40E94700A5B016C0160937502709336
:100440007602809377029093780220E030E040E0DB
:100450005FE30E946C0A8823E4F1C601B50128E13C
:1004600036E24AEB50E40E94700AA60195010E9410
:10047000700A7B018C01C601B50121E634ED4AED1D
:1004800051EC0E94700A9B01AC01C801B7010E94A7
:10049000B90823E735E24EE052E40E94B9086093C0
:1004A000710270937202809373029093740282E9D6
:1004B00094E060E072E00E94400740917102509128
:1004C0007202609173027091740282E994E00E945A
:1004D000AD081F910F91FF90EF90DF90CF90BF90EC
:1004E000AF90089509C082E994E00E94FE05BC0126
:1004F0008EE192E00E94140182E994E00E94EA05F4
:10050000882389F70E94AC01089582E994E040E0D5
:100510005BE460E070E00E94F10485EA94E040E072
:100520005BE460E070E00E94F10488EB94E040E05E
:100530005BE460E070E00E94F1048EE192E06FEB1A
:1005400072E00E94100108950E945C030E948502DF
:100550000E947202FDCF80916F028D3639F485EAD8
:1005600094E0609170020E9426060895813631F46D
:1005700088EB94E0609170020E94260608950F9324
:100580001F9300E410EC46C08EE192E00E948301CC
:1005900080936F028D3611F08136D1F58EE192E0B5
:1005A0000E94920190936C0280936B0281309105BE
:1005B00019F08330910599F48EE192E00E94920146
:1005C00090936E0280936D02009719F4009370026D
:1005D0001FC097FF02C08F5B19C0815C17C08230BB
:1005E000910511F00497A1F48EE192E00E9492012E
:1005F00090936E0280936D02009719F4109370022D
:1006000007C097FF02C0805401C0815480937002DC
:100610000E94AB028EE192E00E948001882309F0E3
:10062000B3CF1F910F9108951F920F920FB60F92A3
:1006300011242F933F938F939F93AF93BF938091F8
:100640007D0290917E02A0917F02B0918002309154
:1006500081020196A11DB11D232F2D5F2D3720F0A2
:100660002D570196A11DB11D2093810280937D021B
:1006700090937E02A0937F02B093800280917902D2
:1006800090917A02A0917B02B0917C020196A11D0B
:10069000B11D8093790290937A02A0937B02B0936C
:1006A0007C02BF91AF919F918F913F912F910F90BD
:1006B0000FBE0F901F901895789484B5826084BD0A
:1006C00084B5816084BD85B5826085BD85B5816056
:1006D00085BDEEE6F0E0808181608083E1E8F0E0B6
:1006E000808182608083808181608083E0E8F0E0A7
:1006F000808181608083E1EBF0E080818460808391
:10070000E0EBF0E0808181608083E1E9F0E08081CE
:1007100082608083808181608083E1EAF0E0808173
:1007200082608083808181608083E1E2F1E080816A
:1007300082608083808181608083E0E9F0E0808155
:1007400081608083E0EAF0E0808181608083E0E284
:10075000F1E0808181608083EAE7F0E0808184605D
:1007600080838081826080838081816080838081BA
:10077000806880831092C1000895382F3F702091C7
:1007800012022295220F220F207C232B20937C0023
:1007900020917B0086958695869590E0817090707B
:1007A00033E0880F991F3A95E1F7277F282B209394
:1007B0007B0080917A00806480937A0080917A0037
:1007C00086FDFCCF2091780040917900942F80E045
:1007D00030E0282B392BC90108951F920F920FB6D4
:1007E0000F920BB60F9211242F933F934F935F9369
:1007F0006F937F938F939F93AF93BF93EF93FF93E9
:100800004091C600E0910203F0910303CF010196ED
:1008100060E870E00E94F20A9C01809104039091CC
:1008200005032817390739F0EE57FD4F4083309301
:10083000030320930203FF91EF91BF91AF919F912A
:100840008F917F916F915F914F913F912F910F9079
:100850000BBE0F900FBE0F901F9018951F920F9216
:100860000FB60F920BB60F9211242F933F934F9315
:100870005F936F937F938F939F93AF93BF93EF9308
:10088000FF934091CE00E0918603F0918703CF0162
:10089000019660E870E00E94F20A9C018091880352
:1008A000909189032817390739F0EA5FFC4F40839C
:1008B0003093870320938603FF91EF91BF91AF910F
:1008C0009F918F917F916F915F914F913F912F9168
:1008D0000F900BBE0F900FBE0F901F9018951F9298
:1008E0000F920FB60F920BB60F9211242F933F93D6
:1008F0004F935F936F937F938F939F93AF93BF9328
:10090000EF93FF934091D600E0910A04F0910B041D
:10091000CF01019660E870E00E94F20A9C0180918C
:100920000C0490910D042817390739F0E657FC4F55
:10093000408330930B0420930A04FF91EF91BF9101
:10094000AF919F918F917F916F915F914F913F9167
:100950002F910F900BBE0F900FBE0F901F90189508
:100960001F920F920FB60F920BB60F9211242F9376
:100970003F934F935F936F937F938F939F93AF9327
:10098000BF93EF93FF9340913601E0918E04F09175
:100990008F04CF01019660E870E00E94F20A9C018A
:1009A00080919004909191042817390739F0E25F03
:1009B000FB4F408330938F0420938E04FF91EF917F
:1009C000BF91AF919F918F917F916F915F914F9167
:1009D0003F912F910F900BBE0F900FBE0F901F9065
:1009E00018955F926F927F928F929F92AF92BF9273
:1009F000CF92DF92EF92FF920F931F93CF93DF93EB
:100A0000EC013A014B01413482E458078FE068075A
:100A100080E078070CF07FC060E874E88EE190E039
:100A2000A40193010E94270B2150304040405040C8
:100A3000CA01B90122E030E040E050E00E94270BFB
:100A400059016A01A6019501209530954095509570
:100A500094E0220F331F441F551F9A95D1F760E091
:100A600074E284EF90E00E94270BCA01B9012FEFD6
:100A700030E040E050E00E94D30AA40193010E94BC
:100A8000270BC90181509F4F181619061CF4522ECE
:100A90005A9403C055245394521A60E079E08DE3D0
:100AA00090E0A40193010E94270B21503040404068
:100AB0005040CA01B90122E030E040E050E00E941D
:100AC000270B209530954095509583E0220F331FDA
:100AD000441F551F8A95D1F760E074E284EF90E0DF
:100AE0000E94270BCA01B9012FEF30E040E050E02F
:100AF0000E94D30AA40193010E94270BC9018150CF
:100B00009F4F181619061CF4822F815002C081E0F5
:100B1000821B851500F5E885F98581E090E00A885B
:100B200002C0880F991F0A94E2F7808360E079E0A1
:100B30008DE390E0A40193010E94270B21503040E7
:100B400040405040CA01B90122E030E040E050E0AE
:100B50000E94270B04C0E885F98510829501EC817D
:100B6000FD813083EE81FF812083EA85FB85208132
:100B700041E050E0CA010E8402C0880F991F0A9418
:100B8000E2F7282B2083EA85FB852081CA010F84A8
:100B900002C0880F991F0A94E2F7282B2083EA8568
:100BA000FB858081088802C0440F551F0A94E2F734
:100BB000842B8083DF91CF911F910F91FF90EF9055
:100BC000DF90CF90BF90AF909F908F907F906F906D
:100BD0005F900895DC011296ED91FC911397E05817
:100BE000FF4F8191919180589F4F20813181821BCD
:100BF000930B60E870E00E94F20A0895CF93DF93B0
:100C0000DC011296ED91FC911397EF01CE57DF4F67
:100C100048815981E058FF4F80819181E058F04030
:100C20008417950719F42FEF3FEF0CC0E40FF51F61
:100C30002081CA01019660E870E00E94F20A99835F
:100C4000888330E0C901DF91CF910895FC01A08530
:100C5000B18521898C9190E0022E02C095958795EF
:100C60000A94E2F780FFF6CF0484F585E02D6083D7
:100C7000089527E132E0309393042093920482E8B0
:100C800092E0909395048093940485EC90E0909387
:100C900097048093960484EC90E090939904809359
:100CA000980480EC90E090939B0480939A0481ECEC
:100CB00090E090939D0480939C0486EC90E0909348
:100CC0009F0480939E04E4E0E093A00473E070939B
:100CD000A10467E06093A20455E05093A30441E0AF
:100CE0004093A4043093A6042093A50486E093E0E7
:100CF0009093A8048093A7048DEC90E09093AA04AD
:100D00008093A9048CEC90E09093AC048093AB04A6
:100D100088EC90E09093AE048093AD0489EC90E071
:100D20009093B0048093AF048EEC90E09093B20463
:100D30008093B104E093B3047093B4046093B5045A
:100D40005093B6044093B7043093B9042093B80489
:100D50008AE893E09093BB048093BA0485ED90E019
:100D60009093BD048093BC0484ED90E09093BF0405
:100D70008093BE0480ED90E09093C1048093C00402
:100D800081ED90E09093C3048093C20486ED90E0DF
:100D90009093C5048093C404E093C6047093C70481
:100DA0006093C8045093C9044093CA043093CC04A0
:100DB0002093CB048EE094E09093CE048093CD04F6
:100DC00085E391E09093D0048093CF0484E391E095
:100DD0009093D2048093D10480E391E09093D40463
:100DE0008093D30481E391E09093D6048093D5045B
:100DF00086E391E09093D8048093D704E093D904DC
:100E00007093DA046093DB045093DC044093DD04B8
:100E100008950F931F93CF93DF938C01EB0109C0CB
:100E20002196D801ED91FC910190F081E02DC8014F
:100E3000099568816623A1F7DF91CF911F910F91EA
:100E40000895EF92FF920F931F93CF93DF938C013E
:100E50007B01EA010CC0D7016D917D01D801ED91B4
:100E6000FC910190F081E02DC80109952197209710
:100E700091F7DF91CF911F910F91FF90EF9008951F
:100E8000DC01ED91FC910280F381E02D099508953C
:100E90000F931F938C01DC01ED91FC910190F08187
:100EA000E02D6DE00995D801ED91FC910190F08164
:100EB000E02DC8016AE009951F910F9108952F92C6
:100EC0003F924F925F926F927F928F929F92AF92DA
:100ED000BF92CF92DF92EF92FF920F931F93DF9317
:100EE000CF93CDB7DEB7A0970FB6F894DEBF0FBE95
:100EF000CDBF1C016A017B014115510561057105DA
:100F000049F4DC01ED91FC910190F081E02D60E36A
:100F1000099554C0882499245401422E55246624EE
:100F2000772401E010E00C0F1D1F080D191DC701EB
:100F3000B601A30192010E94050BF8016083089499
:100F4000811C911CA11CB11CC701B601A301920117
:100F50000E94050BC901DA016C017D01C114D104A5
:100F6000E104F104F1F681E0E82EF12CEC0EFD1E17
:100F7000E80CF91C3E010894611C711CD501C401E8
:100F80000197A109B1096C01C818D90814C0F6016C
:100F9000EE0DFF1D60816A3010F4605D01C0695C78
:100FA000D101ED91FC910190F081E02DC1010995F5
:100FB0000894E108F1086E147F0449F7A0960FB673
:100FC000F894DEBF0FBECDBFCF91DF911F910F917F
:100FD000FF90EF90DF90CF90BF90AF909F908F9059
:100FE0007F906F905F904F903F902F9008952AE0F0
:100FF0000E945F070895EF92FF920F931F93CF9384
:10100000DF93EC017A018B0177FF0FC0E881F98152
:101010000190F081E02D6DE2099510950095F09416
:10102000E094E11CF11C011D111DCE01B801A701C6
:101030002AE00E945F07DF91CF911F910F91FF90EF
:10104000EF9008959F92AF92BF92CF92DF92EF926E
:10105000FF920F931F93CF93DF93EC017A018B01E3
:10106000922ECB01BA0120E030E040E050E00E9437
:101070001D09882364F4E881F9810190F081E02D55
:10108000CE016DE2099517FB109517F9109520E038
:1010900030E040E05FE3AA240BC0CA01B90120E0C0
:1010A00030E040E251E40E9421099B01AC01A3948D
:1010B000A91498F3C801B7010E94B9085B016C013B
:1010C0000E948E097B018C01CE01B801A7010E940C
:1010D000F707992029F0CE0160E172E00E944007F5
:1010E000C801B7010E94BA099B01AC01C601B50154
:1010F0000E94B80820C020E030E040E251E40E94A5
:10110000700A7B018C010E9489095B016C01CC246F
:10111000B7FCC094DC2CCE01B601A5010E94FB07F0
:10112000C601B5010E94BC099B01AC01C801B70111
:101130000E94B8089A949920F1F6DF91CF911F91FF
:101140000F91FF90EF90DF90CF90BF90AF909F9066
:10115000089522E00E94220808950F931F938C01A6
:101160000E94A908C8010E9448071F910F91089585
:101170005058BB27AA270ED075C166D130F06BD16D
:1011800020F031F49F3F11F41EF45BC10EF4E095A2
:10119000E7FB51C1E92F77D180F3BA1762077307D4
:1011A0008407950718F071F49EF58FC10EF4E09551
:1011B0000B2EBA2FA02D0B01B90190010C01CA0111
:1011C000A0011124FF27591B99F0593F50F4503EBC
:1011D00068F11A16F040A22F232F342F4427585FAE
:1011E000F3CF469537952795A795F0405395C9F7C6
:1011F0007EF41F16BA0B620B730B840BBAF091507E
:10120000A1F0FF0FBB1F661F771F881FC2F70EC01C
:10121000BA0F621F731F841F48F4879577956795EF
:10122000B795F7959E3F08F0B3CF9395880F08F0D8
:101230009927EE0F979587950895D9D008F481E006
:1012400008950CD00FC107D140F0FED030F021F44A
:101250005F3F19F0F0C0511139C1F3C014D198F3B8
:101260009923C9F35523B1F3951B550BBB27AA2727
:1012700062177307840738F09F5F5F4F220F331F99
:10128000441FAA1FA9F333D00E2E3AF0E0E830D065
:1012900091505040E695001CCAF729D0FE2F27D068
:1012A000660F771F881FBB1F261737074807AB0736
:1012B000B0E809F0BB0B802DBF01FF2793585F4FAB
:1012C0002AF09E3F510568F0B6C000C15F3FECF3C5
:1012D000983EDCF3869577956795B795F7959F5F70
:1012E000C9F7880F911D9695879597F90895E1E0C4
:1012F000660F771F881FBB1F621773078407BA0723
:1013000020F0621B730B840BBA0BEE1F88F7E0957D
:10131000089504D06894B111D9C00895BCD088F064
:101320009F5790F0B92F9927B751A0F0D1F0660FD1
:10133000771F881F991F1AF0BA95C9F712C0B130EC
:1013400081F0C3D0B1E00895C0C0672F782F8827FF
:10135000B85F39F0B93FCCF3869577956795B3952B
:10136000D9F73EF490958095709561957F4F8F4F9A
:101370009F4F0895E89409C097FB3EF4909580959F
:10138000709561957F4F8F4F9F4F9923A9F0F92F4B
:1013900096E9BB279395F695879577956795B795C9
:1013A000F111F8CFFAF4BB0F11F460FF1BC06F5FAF
:1013B0007F4F8F4F9F4F16C0882311F096E911C0C1
:1013C000772321F09EE8872F762F05C0662371F0E2
:1013D00096E8862F70E060E02AF09A95660F771FF6
:1013E000881FDAF7880F9695879597F90895990FD2
:1013F0000008550FAA0BE0E8FEEF16161706E807DF
:10140000F907C0F012161306E407F50798F0621BFF
:10141000730B840B950B39F40A2661F0232B242BD4
:10142000252B21F408950A2609F4A140A6958FEFF3
:10143000811D811D089597F99F6780E870E060E045
:1014400008959FEF80EC089500240A94161617065D
:1014500018060906089500240A94121613061406A5
:1014600005060895092E0394000C11F4882352F008
:10147000BB0F40F4BF2B11F460FF04C06F5F7F4FC0
:101480008F4F9F4F089557FD9058440F551F59F0A7
:101490005F3F71F04795880F97FB991F61F09F3F61
:1014A00079F087950895121613061406551FF2CF8A
:1014B0004695F1DF08C0161617061806991FF1CFDA
:1014C00086957105610508940895E894BB27662701
:1014D0007727CB0197F908958ADF08F48FEF0895F5
:1014E0000BD0C0CFB1DF28F0B6DF18F0952309F09C
:1014F000A2CFA7CF1124EACFC6DFA0F3959FD1F3E7
:10150000950F50E0551F629FF001729FBB27F00DB1
:10151000B11D639FAA27F00DB11DAA1F649F662706
:10152000B00DA11D661F829F2227B00DA11D621F55
:10153000739FB00DA11D621F839FA00D611D221F0F
:10154000749F3327A00D611D231F849F600D211DF3
:10155000822F762F6A2F11249F5750408AF0E1F096
:1015600088234AF0EE0FFF1FBB1F661F771F881FDF
:1015700091505040A9F79E3F510570F05CCFA6CF27
:101580005F3FECF3983EDCF3869577956795B795CA
:10159000F795E7959F5FC1F7FE2B880F911D9695F4
:1015A000879597F90895629FD001739FF001829FFC
:1015B000E00DF11D649FE00DF11D929FF00D839FE2
:1015C000F00D749FF00D659FF00D9927729FB00D7F
:1015D000E11DF91F639FB00DE11DF91FBD01CF0192
:1015E0001124089597FB092E07260AD077FD04D011
:1015F00049D006D000201AF4709561957F4F089568
:10160000F6F7909581959F4F0895A1E21A2EAA1B97
:10161000BB1BFD010DC0AA1FBB1FEE1FFF1FA217A2
:10162000B307E407F50720F0A21BB30BE40BF50B9F
:10163000661F771F881F991F1A9469F76095709528
:10164000809590959B01AC01BD01CF01089597FB5A
:10165000092E05260ED057FD04D0D7DF0AD0001C76
:1016600038F450954095309521953F4F4F4F5F4F3F
:101670000895F6F790958095709561957F4F8F4FFF
:101680009F4F0895AA1BBB1B51E107C0AA1FBB1F98
:10169000A617B70710F0A61BB70B881F991F5A95FE
:1016A000A9F780959095BC01CD010895EE0FFF1F1D
:0C16B0000590F491E02D0994F894FFCF10
:1016BC004261636B75702053656E736F723A2000D4
:0E16CC002E000100000000260609072107007D
:00000001FF
